{
  "contractName": "EthPrice",
  "abi": [
    {
      "constant": true,
      "inputs": [],
      "name": "ethPriceCents",
      "outputs": [
        {
          "name": "",
          "type": "uint256"
        }
      ],
      "payable": false,
      "stateMutability": "view",
      "type": "function",
      "signature": "0xf2cc456c"
    },
    {
      "inputs": [],
      "payable": false,
      "stateMutability": "nonpayable",
      "type": "constructor",
      "signature": "constructor"
    },
    {
      "anonymous": false,
      "inputs": [
        {
          "indexed": false,
          "name": "_priceInCents",
          "type": "uint256"
        }
      ],
      "name": "LogNewEthPrice",
      "type": "event",
      "signature": "0x7b64844133be1cf9f7f94f0b3d3b14551922804f666967cd6decf7d4978133ed"
    },
    {
      "anonymous": false,
      "inputs": [
        {
          "indexed": false,
          "name": "_description",
          "type": "string"
        }
      ],
      "name": "LogNewProvableQuery",
      "type": "event",
      "signature": "0xc4dc360d0a9c0677a3379ae0a3d81e887f761e65fdf3d7e00859d1bcd3c47389"
    },
    {
      "constant": false,
      "inputs": [],
      "name": "fetchEthPriceViaProvable",
      "outputs": [],
      "payable": true,
      "stateMutability": "payable",
      "type": "function",
      "signature": "0xd3305a9a"
    },
    {
      "constant": false,
      "inputs": [
        {
          "name": "_myid",
          "type": "bytes32"
        },
        {
          "name": "_result",
          "type": "string"
        }
      ],
      "name": "__callback",
      "outputs": [],
      "payable": false,
      "stateMutability": "nonpayable",
      "type": "function",
      "signature": "0x27dc297e"
    },
    {
      "constant": false,
      "inputs": [
        {
          "name": "_queryID",
          "type": "bytes32"
        },
        {
          "name": "_result",
          "type": "string"
        },
        {
          "name": "_proof",
          "type": "bytes"
        }
      ],
      "name": "__callback",
      "outputs": [],
      "payable": false,
      "stateMutability": "nonpayable",
      "type": "function",
      "signature": "0x38bbfa50"
    }
  ],
  "bytecode": "0x60806040523480156200001157600080fd5b506200002b62000031640100000000026401000000009004565b62000e9f565b7fc4dc360d0a9c0677a3379ae0a3d81e887f761e65fdf3d7e00859d1bcd3c473896040518080602001828103825260198152602001807f50726f7661626c6520717565727920696e2d666c69676874210000000000000081525060200191505060405180910390a16200016b6040805190810160405280600381526020017f55524c0000000000000000000000000000000000000000000000000000000000815250608060405190810160405280604c81526020017f6a736f6e2868747470733a2f2f6170692e6b72616b656e2e636f6d2f302f707581526020017f626c69632f5469636b65723f706169723d455448555344292e726573756c742e81526020017f584554485a5553442e632e3000000000000000000000000000000000000000008152506200016e640100000000026401000000009004565b50565b60008073ffffffffffffffffffffffffffffffffffffffff16600160009054906101000a900473ffffffffffffffffffffffffffffffffffffffff1673ffffffffffffffffffffffffffffffffffffffff161480620002085750600062000206600160009054906101000a900473ffffffffffffffffffffffffffffffffffffffff1662000763640100000000026401000000009004565b145b156200022b576200022960006200076e640100000000026401000000009004565b505b600160009054906101000a900473ffffffffffffffffffffffffffffffffffffffff1673ffffffffffffffffffffffffffffffffffffffff166338cc48316040518163ffffffff167c0100000000000000000000000000000000000000000000000000000000028152600401602060405180830381600087803b158015620002b257600080fd5b505af1158015620002c7573d6000803e3d6000fd5b505050506040513d6020811015620002de57600080fd5b810190808051906020019092919050505073ffffffffffffffffffffffffffffffffffffffff166000809054906101000a900473ffffffffffffffffffffffffffffffffffffffff1673ffffffffffffffffffffffffffffffffffffffff161415156200044957600160009054906101000a900473ffffffffffffffffffffffffffffffffffffffff1673ffffffffffffffffffffffffffffffffffffffff166338cc48316040518163ffffffff167c0100000000000000000000000000000000000000000000000000000000028152600401602060405180830381600087803b158015620003cc57600080fd5b505af1158015620003e1573d6000803e3d6000fd5b505050506040513d6020811015620003f857600080fd5b81019080805190602001909291905050506000806101000a81548173ffffffffffffffffffffffffffffffffffffffff021916908373ffffffffffffffffffffffffffffffffffffffff1602179055505b60008060009054906101000a900473ffffffffffffffffffffffffffffffffffffffff1673ffffffffffffffffffffffffffffffffffffffff1663524f3889856040518263ffffffff167c01000000000000000000000000000000000000000000000000000000000281526004018080602001828103825283818151815260200191508051906020019080838360005b83811015620004f6578082015181840152602081019050620004d9565b50505050905090810190601f168015620005245780820380516001836020036101000a031916815260200191505b5092505050602060405180830381600087803b1580156200054457600080fd5b505af115801562000559573d6000803e3d6000fd5b505050506040513d60208110156200057057600080fd5b8101908080519060200190929190505050905062030d403a02670de0b6b3a764000001811115620005a95760006001029150506200075d565b6000809054906101000a900473ffffffffffffffffffffffffffffffffffffffff1673ffffffffffffffffffffffffffffffffffffffff1663adf59f9982600087876040518563ffffffff167c0100000000000000000000000000000000000000000000000000000000028152600401808481526020018060200180602001838103835285818151815260200191508051906020019080838360005b838110156200066257808201518184015260208101905062000645565b50505050905090810190601f168015620006905780820380516001836020036101000a031916815260200191505b50838103825284818151815260200191508051906020019080838360005b83811015620006cb578082015181840152602081019050620006ae565b50505050905090810190601f168015620006f95780820380516001836020036101000a031916815260200191505b50955050505050506020604051808303818588803b1580156200071b57600080fd5b505af115801562000730573d6000803e3d6000fd5b50505050506040513d60208110156200074857600080fd5b81019080805190602001909291905050509150505b92915050565b6000813b9050919050565b60006200078962000790640100000000026401000000009004565b9050919050565b600080620007c1731d3b2638a7cc9f2cb3d298a3da7a90b67e5506ed62000763640100000000026401000000009004565b11156200087657731d3b2638a7cc9f2cb3d298a3da7a90b67e5506ed600160006101000a81548173ffffffffffffffffffffffffffffffffffffffff021916908373ffffffffffffffffffffffffffffffffffffffff1602179055506200086c6040805190810160405280600b81526020017f6574685f6d61696e6e657400000000000000000000000000000000000000000081525062000dd4640100000000026401000000009004565b6001905062000dd1565b6000620008a673c03a2615d5efaf5f49f60b7bb6583eaec212fdf162000763640100000000026401000000009004565b11156200095b5773c03a2615d5efaf5f49f60b7bb6583eaec212fdf1600160006101000a81548173ffffffffffffffffffffffffffffffffffffffff021916908373ffffffffffffffffffffffffffffffffffffffff160217905550620009516040805190810160405280600c81526020017f6574685f726f707374656e33000000000000000000000000000000000000000081525062000dd4640100000000026401000000009004565b6001905062000dd1565b60006200098b73b7a07bcf2ba2f2703b24c0691b5278999c59ac7e62000763640100000000026401000000009004565b111562000a405773b7a07bcf2ba2f2703b24c0691b5278999c59ac7e600160006101000a81548173ffffffffffffffffffffffffffffffffffffffff021916908373ffffffffffffffffffffffffffffffffffffffff16021790555062000a366040805190810160405280600981526020017f6574685f6b6f76616e000000000000000000000000000000000000000000000081525062000dd4640100000000026401000000009004565b6001905062000dd1565b600062000a7073146500cfd35b22e4a392fe0adc06de1a1368ed4862000763640100000000026401000000009004565b111562000b255773146500cfd35b22e4a392fe0adc06de1a1368ed48600160006101000a81548173ffffffffffffffffffffffffffffffffffffffff021916908373ffffffffffffffffffffffffffffffffffffffff16021790555062000b1b6040805190810160405280600b81526020017f6574685f72696e6b65627900000000000000000000000000000000000000000081525062000dd4640100000000026401000000009004565b6001905062000dd1565b600062000b5573a2998efd205fb9d4b4963afb70778d6354ad3a4162000763640100000000026401000000009004565b111562000c0a5773a2998efd205fb9d4b4963afb70778d6354ad3a41600160006101000a81548173ffffffffffffffffffffffffffffffffffffffff021916908373ffffffffffffffffffffffffffffffffffffffff16021790555062000c006040805190810160405280600a81526020017f6574685f676f65726c690000000000000000000000000000000000000000000081525062000dd4640100000000026401000000009004565b6001905062000dd1565b600062000c3a736f485c8bf6fc43ea212e93bbf8ce046c7f1cb47562000763640100000000026401000000009004565b111562000ca057736f485c8bf6fc43ea212e93bbf8ce046c7f1cb475600160006101000a81548173ffffffffffffffffffffffffffffffffffffffff021916908373ffffffffffffffffffffffffffffffffffffffff1602179055506001905062000dd1565b600062000cd07320e12a1f859b3feae5fb2a0a32c18f5a65555bbf62000763640100000000026401000000009004565b111562000d36577320e12a1f859b3feae5fb2a0a32c18f5a65555bbf600160006101000a81548173ffffffffffffffffffffffffffffffffffffffff021916908373ffffffffffffffffffffffffffffffffffffffff1602179055506001905062000dd1565b600062000d667351efaf4c8b3c9afbd5ab9f4bbc82784ab6ef8faa62000763640100000000026401000000009004565b111562000dcc577351efaf4c8b3c9afbd5ab9f4bbc82784ab6ef8faa600160006101000a81548173ffffffffffffffffffffffffffffffffffffffff021916908373ffffffffffffffffffffffffffffffffffffffff1602179055506001905062000dd1565b600090505b90565b806002908051906020019062000dec92919062000df0565b5050565b828054600181600116156101000203166002900490600052602060002090601f016020900481019282601f1062000e3357805160ff191683800117855562000e64565b8280016001018555821562000e64579182015b8281111562000e6357825182559160200191906001019062000e46565b5b50905062000e73919062000e77565b5090565b62000e9c91905b8082111562000e9857600081600090555060010162000e7e565b5090565b90565b6117018062000eaf6000396000f3fe608060405260043610610062576000357c0100000000000000000000000000000000000000000000000000000000900463ffffffff16806327dc297e1461006757806338bbfa5014610139578063d3305a9a146102a2578063f2cc456c146102ac575b600080fd5b34801561007357600080fd5b506101376004803603604081101561008a57600080fd5b8101908080359060200190929190803590602001906401000000008111156100b157600080fd5b8201836020820111156100c357600080fd5b803590602001918460018302840111640100000000831117156100e557600080fd5b91908080601f016020809104026020016040519081016040528093929190818152602001838380828437600081840152601f19601f8201169050808301925050505050505091929192905050506102d7565b005b34801561014557600080fd5b506102a06004803603606081101561015c57600080fd5b81019080803590602001909291908035906020019064010000000081111561018357600080fd5b82018360208201111561019557600080fd5b803590602001918460018302840111640100000000831117156101b757600080fd5b91908080601f016020809104026020016040519081016040528093929190818152602001838380828437600081840152601f19601f8201169050808301925050505050505091929192908035906020019064010000000081111561021a57600080fd5b82018360208201111561022c57600080fd5b8035906020019184600183028401116401000000008311171561024e57600080fd5b91908080601f016020809104026020016040519081016040528093929190818152602001838380828437600081840152601f19601f82011690508083019250505050505050919291929050505061031a565b005b6102aa6103aa565b005b3480156102b857600080fd5b506102c16104d6565b6040518082815260200191505060405180910390f35b610316828260006040519080825280601f01601f1916602001820160405280156103105781602001600182028038833980820191505090505b5061031a565b5050565b6103226104dc565b73ffffffffffffffffffffffffffffffffffffffff163373ffffffffffffffffffffffffffffffffffffffff1614151561035b57600080fd5b61036682600261084f565b6005819055507f7b64844133be1cf9f7f94f0b3d3b14551922804f666967cd6decf7d4978133ed6005546040518082815260200191505060405180910390a1505050565b7fc4dc360d0a9c0677a3379ae0a3d81e887f761e65fdf3d7e00859d1bcd3c473896040518080602001828103825260198152602001807f50726f7661626c6520717565727920696e2d666c69676874210000000000000081525060200191505060405180910390a16104d36040805190810160405280600381526020017f55524c0000000000000000000000000000000000000000000000000000000000815250608060405190810160405280604c81526020017f6a736f6e2868747470733a2f2f6170692e6b72616b656e2e636f6d2f302f707581526020017f626c69632f5469636b65723f706169723d455448555344292e726573756c742e81526020017f584554485a5553442e632e300000000000000000000000000000000000000000815250610aea565b50565b60055481565b60008073ffffffffffffffffffffffffffffffffffffffff16600160009054906101000a900473ffffffffffffffffffffffffffffffffffffffff1673ffffffffffffffffffffffffffffffffffffffff16148061056457506000610562600160009054906101000a900473ffffffffffffffffffffffffffffffffffffffff166110a3565b145b156105755761057360006110ae565b505b600160009054906101000a900473ffffffffffffffffffffffffffffffffffffffff1673ffffffffffffffffffffffffffffffffffffffff166338cc48316040518163ffffffff167c0100000000000000000000000000000000000000000000000000000000028152600401602060405180830381600087803b1580156105fb57600080fd5b505af115801561060f573d6000803e3d6000fd5b505050506040513d602081101561062557600080fd5b810190808051906020019092919050505073ffffffffffffffffffffffffffffffffffffffff166000809054906101000a900473ffffffffffffffffffffffffffffffffffffffff1673ffffffffffffffffffffffffffffffffffffffff1614151561078c57600160009054906101000a900473ffffffffffffffffffffffffffffffffffffffff1673ffffffffffffffffffffffffffffffffffffffff166338cc48316040518163ffffffff167c0100000000000000000000000000000000000000000000000000000000028152600401602060405180830381600087803b15801561071157600080fd5b505af1158015610725573d6000803e3d6000fd5b505050506040513d602081101561073b57600080fd5b81019080805190602001909291905050506000806101000a81548173ffffffffffffffffffffffffffffffffffffffff021916908373ffffffffffffffffffffffffffffffffffffffff1602179055505b6000809054906101000a900473ffffffffffffffffffffffffffffffffffffffff1673ffffffffffffffffffffffffffffffffffffffff1663c281d19e6040518163ffffffff167c010000000000000000000000000000000000000000000000000000000002815260040160206040518083038186803b15801561080f57600080fd5b505afa158015610823573d6000803e3d6000fd5b505050506040513d602081101561083957600080fd5b8101908080519060200190929190505050905090565b600060608390506000809050600080905060008090505b8351811015610acb576030848281518110151561087f57fe5b9060200101517f010000000000000000000000000000000000000000000000000000000000000090047f0100000000000000000000000000000000000000000000000000000000000000027f0100000000000000000000000000000000000000000000000000000000000000900460ff161015801561097d57506039848281518110151561090957fe5b9060200101517f010000000000000000000000000000000000000000000000000000000000000090047f0100000000000000000000000000000000000000000000000000000000000000027f0100000000000000000000000000000000000000000000000000000000000000900460ff1611155b15610a315781156109a057600086141561099657610acb565b8580600190039650505b600a83029250603084828151811015156109b657fe5b9060200101517f010000000000000000000000000000000000000000000000000000000000000090047f0100000000000000000000000000000000000000000000000000000000000000027f0100000000000000000000000000000000000000000000000000000000000000900460ff160383019250610abe565b602e8482815181101515610a4157fe5b9060200101517f010000000000000000000000000000000000000000000000000000000000000090047f0100000000000000000000000000000000000000000000000000000000000000027f0100000000000000000000000000000000000000000000000000000000000000900460ff161415610abd57600191505b5b8080600101915050610866565b506000851115610ade5784600a0a820291505b81935050505092915050565b60008073ffffffffffffffffffffffffffffffffffffffff16600160009054906101000a900473ffffffffffffffffffffffffffffffffffffffff1673ffffffffffffffffffffffffffffffffffffffff161480610b7257506000610b70600160009054906101000a900473ffffffffffffffffffffffffffffffffffffffff166110a3565b145b15610b8357610b8160006110ae565b505b600160009054906101000a900473ffffffffffffffffffffffffffffffffffffffff1673ffffffffffffffffffffffffffffffffffffffff166338cc48316040518163ffffffff167c0100000000000000000000000000000000000000000000000000000000028152600401602060405180830381600087803b158015610c0957600080fd5b505af1158015610c1d573d6000803e3d6000fd5b505050506040513d6020811015610c3357600080fd5b810190808051906020019092919050505073ffffffffffffffffffffffffffffffffffffffff166000809054906101000a900473ffffffffffffffffffffffffffffffffffffffff1673ffffffffffffffffffffffffffffffffffffffff16141515610d9a57600160009054906101000a900473ffffffffffffffffffffffffffffffffffffffff1673ffffffffffffffffffffffffffffffffffffffff166338cc48316040518163ffffffff167c0100000000000000000000000000000000000000000000000000000000028152600401602060405180830381600087803b158015610d1f57600080fd5b505af1158015610d33573d6000803e3d6000fd5b505050506040513d6020811015610d4957600080fd5b81019080805190602001909291905050506000806101000a81548173ffffffffffffffffffffffffffffffffffffffff021916908373ffffffffffffffffffffffffffffffffffffffff1602179055505b60008060009054906101000a900473ffffffffffffffffffffffffffffffffffffffff1673ffffffffffffffffffffffffffffffffffffffff1663524f3889856040518263ffffffff167c01000000000000000000000000000000000000000000000000000000000281526004018080602001828103825283818151815260200191508051906020019080838360005b83811015610e45578082015181840152602081019050610e2a565b50505050905090810190601f168015610e725780820380516001836020036101000a031916815260200191505b5092505050602060405180830381600087803b158015610e9157600080fd5b505af1158015610ea5573d6000803e3d6000fd5b505050506040513d6020811015610ebb57600080fd5b8101908080519060200190929190505050905062030d403a02670de0b6b3a764000001811115610ef257600060010291505061109d565b6000809054906101000a900473ffffffffffffffffffffffffffffffffffffffff1673ffffffffffffffffffffffffffffffffffffffff1663adf59f9982600087876040518563ffffffff167c0100000000000000000000000000000000000000000000000000000000028152600401808481526020018060200180602001838103835285818151815260200191508051906020019080838360005b83811015610fa9578082015181840152602081019050610f8e565b50505050905090810190601f168015610fd65780820380516001836020036101000a031916815260200191505b50838103825284818151815260200191508051906020019080838360005b8381101561100f578082015181840152602081019050610ff4565b50505050905090810190601f16801561103c5780820380516001836020036101000a031916815260200191505b50955050505050506020604051808303818588803b15801561105d57600080fd5b505af1158015611071573d6000803e3d6000fd5b50505050506040513d602081101561108857600080fd5b81019080805190602001909291905050509150505b92915050565b6000813b9050919050565b60006110b86110bf565b9050919050565b6000806110df731d3b2638a7cc9f2cb3d298a3da7a90b67e5506ed6110a3565b111561118157731d3b2638a7cc9f2cb3d298a3da7a90b67e5506ed600160006101000a81548173ffffffffffffffffffffffffffffffffffffffff021916908373ffffffffffffffffffffffffffffffffffffffff1602179055506111786040805190810160405280600b81526020017f6574685f6d61696e6e6574000000000000000000000000000000000000000000815250611616565b60019050611613565b60006111a073c03a2615d5efaf5f49f60b7bb6583eaec212fdf16110a3565b11156112425773c03a2615d5efaf5f49f60b7bb6583eaec212fdf1600160006101000a81548173ffffffffffffffffffffffffffffffffffffffff021916908373ffffffffffffffffffffffffffffffffffffffff1602179055506112396040805190810160405280600c81526020017f6574685f726f707374656e330000000000000000000000000000000000000000815250611616565b60019050611613565b600061126173b7a07bcf2ba2f2703b24c0691b5278999c59ac7e6110a3565b11156113035773b7a07bcf2ba2f2703b24c0691b5278999c59ac7e600160006101000a81548173ffffffffffffffffffffffffffffffffffffffff021916908373ffffffffffffffffffffffffffffffffffffffff1602179055506112fa6040805190810160405280600981526020017f6574685f6b6f76616e0000000000000000000000000000000000000000000000815250611616565b60019050611613565b600061132273146500cfd35b22e4a392fe0adc06de1a1368ed486110a3565b11156113c45773146500cfd35b22e4a392fe0adc06de1a1368ed48600160006101000a81548173ffffffffffffffffffffffffffffffffffffffff021916908373ffffffffffffffffffffffffffffffffffffffff1602179055506113bb6040805190810160405280600b81526020017f6574685f72696e6b656279000000000000000000000000000000000000000000815250611616565b60019050611613565b60006113e373a2998efd205fb9d4b4963afb70778d6354ad3a416110a3565b11156114855773a2998efd205fb9d4b4963afb70778d6354ad3a41600160006101000a81548173ffffffffffffffffffffffffffffffffffffffff021916908373ffffffffffffffffffffffffffffffffffffffff16021790555061147c6040805190810160405280600a81526020017f6574685f676f65726c6900000000000000000000000000000000000000000000815250611616565b60019050611613565b60006114a4736f485c8bf6fc43ea212e93bbf8ce046c7f1cb4756110a3565b111561150857736f485c8bf6fc43ea212e93bbf8ce046c7f1cb475600160006101000a81548173ffffffffffffffffffffffffffffffffffffffff021916908373ffffffffffffffffffffffffffffffffffffffff16021790555060019050611613565b60006115277320e12a1f859b3feae5fb2a0a32c18f5a65555bbf6110a3565b111561158b577320e12a1f859b3feae5fb2a0a32c18f5a65555bbf600160006101000a81548173ffffffffffffffffffffffffffffffffffffffff021916908373ffffffffffffffffffffffffffffffffffffffff16021790555060019050611613565b60006115aa7351efaf4c8b3c9afbd5ab9f4bbc82784ab6ef8faa6110a3565b111561160e577351efaf4c8b3c9afbd5ab9f4bbc82784ab6ef8faa600160006101000a81548173ffffffffffffffffffffffffffffffffffffffff021916908373ffffffffffffffffffffffffffffffffffffffff16021790555060019050611613565b600090505b90565b806002908051906020019061162c929190611630565b5050565b828054600181600116156101000203166002900490600052602060002090601f016020900481019282601f1061167157805160ff191683800117855561169f565b8280016001018555821561169f579182015b8281111561169e578251825591602001919060010190611683565b5b5090506116ac91906116b0565b5090565b6116d291905b808211156116ce5760008160009055506001016116b6565b5090565b9056fea165627a7a72305820aa659b0c64492a2e234e1e985cf84e4bc23eca2e353cab55e1fefd419153fc020029",
  "source": "pragma solidity 0.5.0;\n\nimport \"./provableAPI.sol\";\n\ncontract EthPrice is usingProvable {\n\n    uint256 public ethPriceCents;\n\n    event LogNewEthPrice(uint256 _priceInCents);\n    event LogNewProvableQuery(string _description);\n\n    constructor()\n        public\n    {\n        fetchEthPriceViaProvable();\n    }\n\n    function fetchEthPriceViaProvable()\n        public\n        payable\n    {\n        emit LogNewProvableQuery(\"Provable query in-flight!\");\n        provable_query(\n            \"URL\",\n            \"json(https://api.kraken.com/0/public/Ticker?pair=ETHUSD).result.XETHZUSD.c.0\"\n        );\n    }\n\n    function __callback(\n        bytes32 _queryID,\n        string memory _result,\n        bytes memory _proof\n    )\n        public\n    {\n        require(msg.sender == provable_cbAddress());\n        ethPriceCents = parseInt(_result, 2);\n        emit LogNewEthPrice(ethPriceCents);\n    }\n\n}\n",
  "sourcePath": "/Users/unomasanori/projects/DEMO_MVP/Devcon5_Hackathon/NFT-based-photo-marketplace/contracts/oracle/EthPrice.sol",
  "compiler": {
    "name": "solc",
    "version": "0.5.0+commit.1d4f565a.Emscripten.clang"
  },
  "schemaVersion": "3.0.1",
  "updatedAt": "2019-09-25T13:45:41.781Z",
  "devdoc": {
    "methods": {
      "__callback(bytes32,string)": {
        "details": "The following `__callback` functions are just placeholders ideally     meant to be defined in child contract when proofs are used.     The function bodies simply silence compiler warnings."
      }
    }
  },
  "userdoc": {
    "methods": {}
  }
}