{
  "contractName": "ProxyRegistry",
  "abi": [
    {
      "constant": true,
      "inputs": [
        {
          "name": "",
          "type": "address"
        }
      ],
      "name": "proxies",
      "outputs": [
        {
          "name": "",
          "type": "address"
        }
      ],
      "payable": false,
      "stateMutability": "view",
      "type": "function"
    }
  ],
  "bytecode": "0x608060405234801561001057600080fd5b50610136806100206000396000f3fe608060405260043610610041576000357c0100000000000000000000000000000000000000000000000000000000900463ffffffff168063c455279114610046575b600080fd5b34801561005257600080fd5b506100956004803603602081101561006957600080fd5b81019080803573ffffffffffffffffffffffffffffffffffffffff1690602001909291905050506100d7565b604051808273ffffffffffffffffffffffffffffffffffffffff1673ffffffffffffffffffffffffffffffffffffffff16815260200191505060405180910390f35b60006020528060005260406000206000915054906101000a900473ffffffffffffffffffffffffffffffffffffffff168156fea165627a7a72305820fdb8b135e0343580b44b4c59158b398a00dd6f845c3362a34d600e9d052c234c0029",
  "source": "pragma solidity >=0.4.22 <0.6.0;\n\nimport \"./openzeppelin-solidity/contracts/math/SafeMath.sol\";\nimport \"./storage/CzStorage.sol\";\nimport \"./modifiers/CzOwnable.sol\";\n\n\nimport './openzeppelin-solidity/contracts/token/ERC721/ERC721Full.sol';\nimport './openzeppelin-solidity/contracts/ownership/Ownable.sol';\n\n\ncontract OwnableDelegateProxy {}\n\ncontract ProxyRegistry {\n    mapping(address => OwnableDelegateProxy) public proxies;\n}\n\n\ncontract CzExchange is ERC721Full, Ownable, CzStorage, CzOwnable {\n\n    using SafeMath for uint256;\n\n    uint256 public tokenId;\n\n    // address proxyRegistryAddress;\n    // uint256 private _currentTokenId = 0;\n\n    // constructor(string memory _name, string memory _symbol, address _proxyRegistryAddress) ERC721Full(_name, _symbol) public {\n    //     proxyRegistryAddress = _proxyRegistryAddress;\n    // }\n\n\n\n    constructor(\n        string memory _name, \n        string memory _symbol,\n        uint _tokenId,\n        string memory _tokenURI\n    )\n        ERC721Full(_name, _symbol)\n        public\n    {\n        /**\n         * @dev Create seed-data (Connect ownerAddress with tokenId == 1) in constructor\n         */ \n        tokenId = _tokenId;\n        _mint(msg.sender, tokenId);\n        _setTokenURI(tokenId, _tokenURI);\n    }\n\n\n    function checkOwnerAddr(uint256 _tokenId) public returns (address) {\n        // This ownnerOf() function is inherited ERC721.sol\n        return ownerOf(_tokenId);\n    }\n\n\n    function mintNFT(address _to) public returns (bool) {\n        // This _mint() function is inherited ERC721.sol\n        tokenId++;\n        _mint(_to, tokenId);\n\n        return true;\n    }\n    \n\n    /**\n     * @dev Buy NFT and ownership-transfer at the same time. \n     */\n    function buyNFT(uint256 _tokenId, address _buyer) public returns (bool) {\n        // Buy NFT\n        address _seller;       // Owener currently\n        _seller = ownerOf(_tokenId);  // Assign current owner (ownerOf function is inherited from ERC721.sol)\n\n        // Ownership-Transfer\n        transferFrom(_seller, _buyer, _tokenId);  // This transferFrom() function is inherited ERC721.sol\n    }\n    \n\n\n\n\n    function testFunc() public returns (bool) {\n        return true;\n    }\n\n\n    function foodExchange() public returns (bool) {\n        return true;    \n    }\n    \n    \n\n}\n",
  "sourcePath": "/Users/unomasanori/projects/DEMO_MVP/Devcon5_Hackathon/NFT-based-photo-marketplace/contracts/CzExchange.sol",
  "compiler": {
    "name": "solc",
    "version": "0.5.0+commit.1d4f565a.Emscripten.clang"
  },
  "schemaVersion": "3.0.1",
  "updatedAt": "2019-09-25T10:48:04.162Z",
  "devdoc": {
    "methods": {}
  },
  "userdoc": {
    "methods": {}
  }
}